:020000040800F2
:10000000A80C002001010008BD040008BF0400087E
:10001000C3040008C7040008CB0400080000000067
:10002000000000000000000000000000CF040008F5
:10003000D104000800000000D3040008D504000823
:100040001B0100081B0100081B0100081B01000820
:100050001B0100081B0100081B0100081B01000810
:100060001B0100081B0100081B0100081B01000800
:100070001B0100081B0100081B0100081B010008F0
:100080001B0100081B0100081B0100081B010008E0
:100090001B0100081B0100081B0100081B010008D0
:1000A0001B0100081B0100081B0100081B010008C0
:1000B0001D0500081B0100081B0100081B010008AA
:1000C0001B0100081B0100081B0100081B010008A0
:1000D0001B010008E70400081B0100081B010008C1
:1000E0001B0100081B0100081B010008DFF80CD0F1
:1000F00005F066FC0048004707020008A80C002035
:100100000648804706480047FEE7FEE7FEE7FEE7B1
:10011000FEE7FEE7FEE7FEE7FEE7FEE78F2A0008C0
:10012000ED00000810B504F0FEFC012867D1CB48B3
:10013000007801280DD1C9484078022809D1C74864
:100140008078552805D1052002F036FD0120C449EC
:100150000870C248007801280DD1C04840780328B3
:1001600009D1BE488078552805D1052002F024FD2C
:100170000020BB490870B948007801280CD1B74865
:100180004078042808D1B5488078552804D1052046
:1001900002F012FD03F07FFDB048007801280CD179
:1001A000AE484078052808D1AC488078552804D15D
:1001B000052002F001FD03F07EFDA848007801282B
:1001C0000CD1A6484078062808D1A4488078552844
:1001D00004D1052002F0F0FC03F03DFD9F480078BB
:1001E00001280CD19D484078072808D19B48807889
:1001F000552804D1052002F0DFFC03F03CFD00206F
:1002000004F08EFC10BD08B502F0E4FC4FF47A70E7
:1002100002F015FD4FF4A06000F0B2F94FF4E130A8
:1002200002F05AFF04F082FC02F0B2FC04F07EFA05
:1002300004F036F803F03CF8642002F000FD0122DF
:10024000D103884801F013F84FF47A7002F0F7FCFC
:1002500041F61F41312004F0C7FA00200423082290
:100260000721009004F09AFE7FA002F020FF4FF4D7
:100270007A7002F0E4FC89A002F019FF40F2E2413A
:10028000062004F03FFBE7E004F04EFBFFF74AFFD7
:1002900003F0D1FE322003F0AAFC052002F08CFC12
:1002A0008148006841F26801884213DC7E4840685A
:1002B00088420FDC7C48006988420BDC7A48406940
:1002C000884207DC78488069884203DC7648406AC7
:1002D000884208DD03F0CFFCFF21002004F085F9FF
:1002E00001207249087071480078012826D16E48B3
:1002F0000068B0F57A6F21DA6B484068B0F57A6F24
:100300001CDA69480069B0F57A6F17DA6648406907
:10031000B0F57A6F12DA64488069B0F57A6F0DDA59
:100320006148406AB0F57A6F08DA03F094FCFF2167
:10033000002004F05AF900205C4908705A4800680F
:10034000B0F52F6F18DB58484068B0F52F6F13DBFE
:1003500055480069B0F52F6F0EDB53484069B0F582
:100360002F6F09DB50488069B0F52F6F04DB4E48D2
:10037000406AB0F52F6F08DA03F09DFCFF210020E2
:1003800004F033F901204A490870494800780128EF
:1003900022D14548006840F6B83188421CDD424809
:1003A0004068884218DD40480069884214DD3E48B4
:1003B0004069884210DD3C48806988420CDD3A483B
:1003C000406A884208DD03F066FCFF21002004F04B
:1003D0000CF90020364908703348C06A41F2883170
:1003E000884208DD03F07DFCFF21002004F0FDF8C9
:1003F0000120304908702F48007801280ED12A4882
:10040000C06A41F28831884208DA03F064FCFF21B7
:10041000002004F0EAF80020264908702248006B0A
:10042000232808DD03F05DFCFF21002004F0DDF847
:100430000120214908702048007801280CD11A4871
:10044000006B232808DA03F046FCFF21002004F0AB
:10045000CCF800201849087016E70000900300202F
:1004600000000020000C01404D4F44455F434647CB
:100470002831293B4449522831293B4653494D47AD
:1004800028323039373135322C302C302C32323062
:100490002C3137362C30293B0D0A0000434C5228B2
:1004A0003631293B0D0A0000E00700200300002040
:1004B000040000200500002006000020704700BF57
:1004C000FEE700BFFEE700BFFEE700BFFEE77047A4
:1004D000704770472548008820B124480088401E96
:1004E00022490880704710B54FF4806440F22551CE
:1004F0001F4802F019FA80B11E480088B0F5806FDD
:100500000BDA1B48001D0088C1B21A480288008817
:10051000401C184B18801848815410BD10B501219B
:10052000880702F02CF8F8B10121880702F038F8AA
:1005300010480088002803DD04F0F5FA012800D1F6
:1005400010BD0C4800880D490988884208D1012057
:1005500004F0E6FA0020074908800849088003E013
:10056000044800880549088000BFE9E70C00002026
:1005700000380140100000209003002012000020ED
:1005800031490143314A1160704770B500210023A1
:100590000F22C47804B32D4C246804F4E064C4F53D
:1005A000E064210AC1F10403CA40447804FA03F16B
:1005B0008478144021430901254C0678A15504781C
:1005C00004F01F050124AC4005786D11AD0005F164
:1005D000E025C5F8004109E0047804F01F05012476
:1005E000AC401C4D0678761145F8264070BD1A4A7D
:1005F0000A400243154B1B1F1A60704739B1134A5A
:10060000121D12680243114B1B1D1A6006E00F4AAF
:10061000121D126882430D4B1B1D1A60704704287F
:1006200008D14FF0E021096941F004014FF0E022C8
:10063000116107E04FF0E021096921F004014FF05A
:10064000E0221161704700000000FA050CED00E0A7
:1006500000E400E080E100E080FFFF1F10B50446E9
:10066000FE48844209D10121480601F052F80021D8
:100670004FF0007001F04DF808E00121880601F00C
:1006800048F800214FF0806001F043F810BD30B50C
:10069000024600200023146824F002041460146849
:1006A00044F00104146000E05B1C546804F0010491
:1006B0001CB94FF6FF74A342F6D1546804F001044C
:1006C0000CB900206CE08C79012C04D1146844F042
:1006D0008004146003E0146824F080041460CC7972
:1006E000012C04D1146844F04004146003E0146841
:1006F00024F0400414600C7A012C04D1146844F0F6
:100700002004146003E0146824F0200414604C7A80
:10071000012C04D1146844F01004146003E0146840
:1007200024F0100414608C7A012C04D1146844F075
:100730000804146003E0146824F008041460CC7A00
:10074000012C04D1146844F00404146003E014681C
:1007500024F0040414608C78A407CD7844EA05647E
:100760000D7944EA05444D7944EA05540D886D1E1F
:100770002C43D461146824F001041460002300E0C9
:100780005B1C546804F001041CB14FF6FF74A342D3
:10079000F6D1546804F001040CB1002000E00120FF
:1007A00030BD10B50021837A012202FA03F1AC4A70
:1007B000126842F00102AA4B1A60A94A1C32126860
:1007C0008A43A74B1C331A60027BCAB9A44A0C3275
:1007D00012688A43A24B0C331A604288C38842EAEB
:1007E00003439F4A4032847A42F834300288838837
:1007F00042EA03439A4A4032847A02EBC4025360CD
:10080000027B012A19D1964A0C3212680A43944B92
:100810000C331A604288038842EA0343904A40320C
:10082000847A42F83430C288838842EA03438C4A8F
:100830004032847A02EBC4025360C27A3AB9884AE1
:10084000121D12688A43864B1B1D1A6006E0844AFB
:10085000121D12680A43824B1B1D1A60028932B9AD
:100860007F4A143212688A437D4B14331A6002891E
:10087000012A06D17A4A143212680A43784B14339B
:100880001A60427B012A06D1754A1C3212680A435B
:10089000734B1C331A60724A126822F00102704BCB
:1008A0001A6010BD00218171C171017241728172A3
:1008B000C1728170C1700321017102214171012156
:1008C000018070476649096841F00101644A11607E
:1008D0001146096843F60E729143614A1160114650
:1008E000096841EA002111601146096821F00101FF
:1008F0001160704721B1026842F48032026003E067
:10090000026822F4803202607047E1B1026842F06E
:10091000800202604FF4C272125842F480734FF4A6
:10092000C27213504FF4CA72125842F480734FF4DB
:10093000CA7213504FF4D272125842F480734FF4BB
:10094000D27213501BE0026822F0800202604FF462
:10095000C272125822F480734FF4C27213504FF4D3
:10096000CA72125822F480734FF4CA7213504FF4B3
:10097000D272125822F480734FF4D272135070471F
:1009800010B502460020936803F08063B3F1806FD6
:1009900000D110E0936803F00063B3F1006F01D160
:1009A000012008E0936803F08053B3F1805F01D128
:1009B000022000E00420042879D002F5C07303EB84
:1009C00000131B6803F0010402F5C07303EB00136E
:1009D0001C600B7A7BB94B7A0C8843EA445302F5CE
:1009E000C07404EB00142468234302F5C07404EBC4
:1009F0000014236010E00B7A4C6843EAC4034C7A7D
:100A0000234302F5C07404EB00142468234302F569
:100A1000C07404EB001423608B7A03F00F038B7215
:100A200002F5C07303EB00135B6823F00F0402F5BB
:100A3000C07303EB00135C6002F5C07303EB00139B
:100A40005B688C7A234302F5C07404EB0014636086
:100A50008B7B1C064B7B44EA034403E000640040AC
:100A6000006600400B7B44EA0323CC7A234302F563
:100A7000C07404EB0014A3608B7C1C064B7C44EA1E
:100A800003440B7C44EA0323CC7B234302F5C0746C
:100A900004EB0014E36002F5C07303EB00131B6862
:100AA00043F0010402F5C07303EB00131C6010BD9A
:100AB00010B50246002321B1012907D002290FD128
:100AC00009E09068F94C00EA04030BE09068F84CE8
:100AD00000EA040306E09068F64C00EA040301E033
:100AE000002300BF00BFF44C181BA34216D007DC44
:100AF00083B16FF08060184470B1022818D111E002
:100B0000B0F5007F10D0ED4C204448B1B0F5003F67
:100B10000ED10BE002230DE000230BE0002309E0DF
:100B2000002307E0012305E0012303E0012301E0A6
:100B3000002300BF00BFD8B210BD21B1012907D0EA
:100B400002290FD109E0826842F0800282600AE047
:100B5000826842F40042826005E0826842F400024A
:100B6000826000E000BF00BF704710B500F5D87389
:100B700003EB01131B6803F004031372137A53B9D8
:100B800000F5D87303EB01131B6840F2FF7404EA0D
:100B90005353136009E000F5D87303EB01131B688E
:100BA0006FF0604404EAD303536000F5D87303EB9D
:100BB00001131B6803F00203537200F5D87303EBB3
:100BC00001135B6803F00F03937200F5D87303EB16
:100BD00001135B681B0AD37400F5D87303EB011390
:100BE0009B68D37200F5D87303EB01139B681C0A52
:100BF000147300F5D87303EB01139B681C0C54733A
:100C000000F5D87303EB01139B681B0E937300F57B
:100C1000D87303EB0113DB68D37300F5D87303EBD0
:100C20000113DB681C0A147400F5D87303EB01137D
:100C3000DB681C0C547400F5D87303EB0113DB68FC
:100C40001B0E937421B9C36843F02003C36003E013
:100C5000036943F02003036110BD21B9C26842F06B
:100C60002002C26003E0026942F020020261704784
:100C70000246002019B9D36803F0030006E00129F9
:100C800003D1136903F0030000E00020704710B5A2
:100C900002460B4600204FF6FF71BBB9146824F0E2
:100CA000020444F00104146000E0491E546804F09A
:100CB0000304012C01D00029F7D1546804F0030487
:100CC000012C01D0002032E0012030E0012B13D1B3
:100CD000146824F00304146000E0491E546804F012
:100CE00003040CB10029F8D1546804F003040CB1DA
:100CF00000201CE001201AE0022B17D1146824F018
:100D0000010444F00204146000E0491E546804F039
:100D10000304022C01D00029F7D1546804F0030425
:100D2000022C01D0002002E0012000E0002010BDD4
:100D3000014600200A6822F0010242F002020A6025
:100D40004A6802F00302022A00D1012070470146DE
:100D50004FF6FF7200200B6823F002030B6000E0E7
:100D6000521E4B6803F00203022B01D1002AF7D177
:100D70004B6803F00203022B00D0012070470146AC
:100D800000208A6902F070007047014600208A69DD
:100D9000100E7047014600208A69C2F30740704771
:100DA0001AB143690B43436102E043698B434361DA
:100DB000704710B50246002001F4700343B19369F7
:100DC000C1F3130423400BB101202DE000202BE0E0
:100DD00001F0807343B15368C1F3130423400BB196
:100DE000012021E000201FE001F0006343B193687F
:100DF000C1F3130423400BB1012015E0002013E0E0
:100E000001F0007343B1D368C1F3130423400BB165
:100E1000012009E0002007E01369C1F31304234017
:100E20000BB1012000E0002010BD0022244B9942AC
:100E300002D10023836111E0C1F3130201F00073BA
:100E40000BB1C2600AE001F080630BB1026105E002
:100E500001F000630BB1826000E04260704702461F
:100E6000002002EA01030BB1012000E000207047DE
:100E700070B504460D46002660692840002872D0EF
:100E8000B5F5807F69D01DDC082D42D006DC012D30
:100E90002DD0022D31D0042D7FD134E0102D3ED045
:100EA000202D42D0402D78D145E000000300000401
:100EB0000003000800000310000100080001FFF714
:100EC0007000F030B5F5004F61D009DCB5F5007F5A
:100ED0004AD0B5F5806F4DD0B5F5006F5DD150E0CB
:100EE000B5F5803F2DD0B5F5003F56D12FE0A06875
:100EF0005549FFF7B4FF064651E0E0680321FFF7CC
:100F0000AEFF06464BE0E0680821FFF7A8FF064663
:100F100045E0E0681021FFF7A2FF06463FE02069A8
:100F20000321FFF79CFF064639E020690821FFF7FF
:100F300096FF064633E020691021FFF790FF064632
:100F40002DE060680821FFF78AFF064627E0606809
:100F50001021FFF784FF064621E0A0690121FFF779
:100F60007EFF06461BE01BE0A0690221FFF777FF2A
:100F7000064614E0A0690421FFF771FF06460EE063
:100F80000BE0A0697021FFF76AFF064607E0606882
:100F90000421FFF764FF064601E0002600BF00E0E1
:100FA0000026304670BDB1F5007F3AD00FDC202915
:100FB00028D006DC01291CD004291DD0082940D1E5
:100FC0001DE0402921D0B1F5807F3AD126E0B1F56E
:100FD000004F31D006DCB1F5806F25D0B1F5006F40
:100FE0002FD124E0B1F5803F12D0B1F5003F28D1D8
:100FF00011E0154A826025E00822C26022E010223A
:10100000C2601FE0082202611CE01022026119E0A8
:101010000822426016E01022426013E0042242607F
:1010200010E0042242600DE0042242600AE0002247
:1010300082610422426005E0002282610422426053
:1010400000E000BF00BF70470101010010B5044679
:10105000CC48844208D10121042000F04DFB00213E
:10106000042000F049FB46E0C748844208D1012132
:10107000082000F041FB0021082000F03DFB3AE091
:10108000C248844208D10121102000F035FB002124
:10109000102000F031FB2EE0BD48844208D1012130
:1010A000202000F029FB0021202000F025FB22E079
:1010B000B848844208D10121402000F01DFB0021E6
:1010C000402000F019FB16E0B348844208D101210A
:1010D000802000F011FB0021802000F00DFB0AE0D1
:1010E000AE48844207D10121801500F005FB0021A4
:1010F000A01500F001FB10BD10B50121084600F05D
:10110000FBFA0021012000F0F7FA10BD2DE9F041B3
:10111000024600250026002000230024002791F825
:1011200003C00CF00F0591F803C00CF0100CBCF1DB
:10113000000F03D091F802C04CEA050591F800C0F9
:10114000BCF1000F31D0146800202BE04FF0010CEF
:101150000CFA00F3B1F800C00CEA03069E4220D15D
:1011600083004FF00F0C0CFA03F7BC4305FA03FCA5
:101170004CEA040491F803C0BCF1280F06D14FF0EB
:10118000010C0CFA00FCC2F814C00AE091F803C08C
:10119000BCF1480F05D14FF0010C0CFA00FCC2F86D
:1011A00010C0401C0828D1D31460B1F800C0BCF1B5
:1011B000FF0F34DD546800202EE000F1080C4FF0E2
:1011C000010808FA0CF3B1F800C00CEA03069E42CD
:1011D00021D183004FF00F0C0CFA03F7BC4305FA42
:1011E00003FC4CEA040491F803C0BCF1280F05D1BC
:1011F00000F1080C08FA0CF8C2F8148091F803C04A
:10120000BCF1480F07D100F1080C4FF0010808FAB3
:101210000CF8C2F81080401C0828CED35460BDE8FA
:10122000F0814FF6FF710180022181700421C170AD
:1012300070470246002093680B400BB1012000E08C
:10124000002070470146886880B27047024600203F
:10125000D3680B400BB1012000E00020704701462D
:10126000C86880B2704701617047416170470AB138
:10127000016100E041617047C16070474FF4803206
:101280000A43826181618261826982697047024694
:101290000020434B18684FF68073184040EA021054
:1012A00008433F4B186070473E49C8617047F0B52E
:1012B0000A46002300240021002500F00046B6F174
:1012C000004F02D1364EF16901E0354E7168C0F32E
:1012D000034583B200F44016B6F5401F08D121F053
:1012E00070612F4E766826F070662D4F7E6012E09A
:1012F00000F48016B6F5801F06D1032606FA05F421
:10130000A14341F0706106E0460D360103FA06F68E
:10131000B14341F0706122B1460D360103FA06F681
:10132000314300F00046B6F1004F02D11C4EF1618E
:1013300001E01B4E7160F0BD30B500228B071C0F21
:101340000F2303FA04F2164B08338C1053F82430A1
:101350009343134C08348D1044F8253023468C10E9
:1013600053F824308C07240F00FA04F423430C4C68
:1013700008348D1044F8253030BD0A49DC3108604E
:101380007047000000080140000C014000100140BF
:101390000014014000180140001C014000200140E1
:1013A00000000140000020420E49086070470D49CE
:1013B000486070470B49886070474AF6AA2009497F
:1013C000086070474CF6CC400649086070470146FB
:1013D0000020044AD2680A400AB1012000E000203F
:1013E0007047000000300040DF48006840F0010016
:1013F000DD49086008464068DC490840DA49486031
:1014000008460068DA490840D7490860084600687D
:1014100020F4802008600846406820F4FE00486000
:101420004FF41F0088607047CF49096821F480316C
:10143000CD4A11601146096821F480211160B0F590
:10144000803F03D0B0F5802F0ED106E0C649096871
:1014500041F48031C44A116007E0C349096841F48E
:10146000A021C14A116000E000BF00BF704710B565
:1014700001460022002300204A11012A02D1BA4C61
:10148000236806E0022A02D1B74C236A01E0B64C79
:10149000636A01F01F02012494401C400CB101203A
:1014A00000E0002010BD38B5002000900024002589
:1014B00000BF3120FFF7DBFF05460098401C00907D
:1014C0000098B0F5A06F01D0002DF2D03120FFF7C9
:1014D000CEFF08B1012400E00024204638BD0146BB
:1014E0000020A14A106820F0F80040EAC100106016
:1014F0007047A04908607047024600209A4B586820
:1015000020F47C1042EA01031843974B586070475F
:1015100098490866704701460020934A506820F0B9
:1015200003000843506070478F48406800F00C008B
:101530007047014600208C4A506820F0F0000843B4
:101540005060704701460020874A506820F4E060F0
:1015500008435060704701460020834A506820F4D9
:10156000605040EAC1005060704729B17E4A527A0B
:1015700002437D4B5A7204E07B4A527A82437A4B93
:101580005A7270477B49D831086070470146002085
:10159000754A506820F4404008435060704700216D
:1015A000714A20321170704A82F82010012802D04E
:1015B00004280AD104E001216B4A2032117005E0B1
:1015C0000521694A2032117000E000BF00BF70475A
:1015D0006949086070476449096A0143624A1162B7
:1015E0007047654944390860704730B500210022D2
:1015F000002400235C4D6D6805F00C0121B1042925
:1016000005D0082923D105E05C4D056022E05B4D43
:1016100005601FE0544D6D6805F47012524D6D6801
:1016200005F48034022505EB92421CB9544D554314
:1016300005600BE04C4D6D6805F400351DB1504D53
:101640005543056002E04D4D5543056002E04B4DAA
:10165000056000BF00BF444D6D6805F0F001090949
:10166000484D6B5C0568DD4045603F4D6D6805F495
:10167000E061090A434D6B5C4568DD4085603A4D89
:101680006D6805F46051C90A3E4D6B5C4568DD40EC
:10169000C560354D6D6805F44041890B3A4D6B5C72
:1016A000C568B5FBF3F5056130BD29B12E4A526915
:1016B00002432D4B5A6104E02B4A526982432A4B64
:1016C0005A61704729B1284A92690243264B9A61B0
:1016D00004E0254A92698243234B9A61704729B1FD
:1016E000214AD2690243204BDA6104E01E4AD269E2
:1016F00082431D4BDA61704729B11B4AD26802430D
:10170000194BDA6004E0184AD2688243164BDA605B
:10171000704729B1144A12690243134B1A6104E05D
:10172000114A12698243104B1A61704712494039BD
:10173000086070470F49C86470470B49C87170470B
:101740000948406A40F08070074948627047014686
:101750000020054A92680A400AB1012000E00020FA
:101760007047014988727047001002400000FFF87E
:10177000FFFFF6FE000042428004424200127A005F
:1017800000093D002A0000203A00002010B5044660
:10179000FE48844208D10121C014FFF7ADFF0021AB
:1017A000E014FFF7A9FFC4E0B4F1804F08D1012194
:1017B0000846FFF7AEFF00210120FFF7AAFFB8E0BF
:1017C000F348844208D101210220FFF7A2FF002143
:1017D0000220FFF79EFFACE0EE48844208D10121D1
:1017E0000420FFF796FF00210420FFF792FFA0E0FE
:1017F000E948844208D101210820FFF78AFF00212F
:101800000820FFF786FF94E0E448844208D10121D4
:101810001020FFF77EFF00211020FFF77AFF88E0FD
:10182000DF48844208D101212020FFF772FF002108
:101830002020FFF76EFF7CE0DA48844208D10121C6
:101840004014FFF759FF00216014FFF755FF70E0C7
:10185000D548844209D10121C804FFF74DFF00217A
:101860004FF40020FFF748FF63E0D048844209D1DD
:1018700001210805FFF740FF00214FF48010FFF71A
:101880003BFF56E0CA48844209D101214805FFF7D1
:1018900033FF00214FF40010FFF72EFF49E0C54849
:1018A000844208D101214020FFF733FF002140206E
:1018B000FFF72FFF3DE0C048844208D1012180207E
:1018C000FFF727FF00218020FFF723FF31E0BB480F
:1018D000844208D101218015FFF71BFF0021A015CC
:1018E000FFF717FF25E0B648844209D1012108041B
:1018F000FFF702FF00214FF48030FFF7FDFE18E0F4
:10190000B048844209D101214804FFF7F5FE0021C7
:101910004FF40030FFF7F0FE0BE0AB48844208D1F3
:1019200001218804FFF7E8FE00214FF48020FFF733
:10193000E3FE10BD00220288944B98420ED0994BD2
:1019400098420BD0B0F1804F08D0914B984205D00F
:10195000904B984202D0904B984204D14FF68F732F
:101960001A404B881A438D4B984207D08C4B9842B3
:1019700004D04FF6FF431A40CB881A4302808B886D
:1019800083850B880385814B98420BD0854B984209
:1019900008D08B4B984205D08A4B984202D08A4B94
:1019A000984201D10B7A038601238382704770B578
:1019B000002400220023058C4FF6FE763540058476
:1019C000028C8388048B4FF68F752C40B51E2C40FB
:1019D0000D882C43751E2A400D892A434D882A43C1
:1019E0006A4DA8420BD06F4DA84208D0744DA84252
:1019F00005D0744DA84202D0734DA84213D14FF6C2
:101A0000F7752A404D892A434FF6FB752A408D8889
:101A10002A434FF6FF652B404FF6FF552B408D892B
:101A20002B43CD892B4383800483CD888586028414
:101A300070BD70B5002400220023058C4FF6EF76B0
:101A400035400584028C8388048B48F6FF752C4052
:101A50004FF6FF452C400D884FF6FF7606EA052528
:101A60002C434FF6DF752A400D8906EA05152A43F7
:101A70004D8806EA05152A43444DA84202D0494D37
:101A8000A8421DD14FF67F752A404D894FF6FF764B
:101A900006EA05152A434FF6BF752A408D8806EAE7
:101AA00005152A434FF6FF352B404FF2FF752B40AB
:101AB0008D8906EA85052B43CD8906EA85052B43EA
:101AC00083800483CD880587028470BD70B50024AF
:101AD00000220023058C4FF6FF6635400584028CFA
:101AE0008388848B4FF68F752C404FF6FC752C4005
:101AF0000D882C434FF6FF552A400D894FF6FF768F
:101B000006EA05252A434D8806EA05252A431F4D86
:101B1000A84202D0234DA8421DD14FF2FF752A40A2
:101B20004D894FF6FF7606EA05252A434FF6FF3525
:101B30002A408D8806EA05252A434EF6FF752B407C
:101B40004DF6FF752B408D8906EA05152B43CD898F
:101B500006EA05152B4383808483CD88858702841C
:101B600070BD70B5002200230024058C4EF6FF7670
:101B700035400584038C8488828B48F6FF752A40A3
:101B80004FF6FF452A400D8820E00000002C014060
:101B90000004004000080040000C0040001000401D
:101BA0000014004000340140004C0140005001404E
:101BB0000054014000180040001C0040002000407C
:101BC0000040014000440140004801404FF6FF76CC
:101BD00006EA05252A434DF6FF752B400D8906EAD6
:101BE00005352B434D8806EA05352B43FA4DA842AF
:101BF00002D0FA4DA84208D14BF6FF752C408D89D2
:101C00004FF6FF7606EA85152C4384808283CD88C3
:101C1000A0F84050038470BD828B4FF2FF331A400E
:101C20008283828B4FF6FF7303EA01231A43828378
:101C30007047F0B50C461546002200210026078C9F
:101C40004EF6FF7C07EA0C070784828B018C4FF667
:101C5000FF7707EA043640F6FF473A404FF6FF7732
:101C600007EA05273A434FF6FF7707EA03373A4377
:101C7000D94FB8420ED0D94FB8420BD0B0F1804FF7
:101C800008D0D74FB84205D0D64FB84202D0D64F71
:101C9000B84206D14DF6FF77394046F480573943B4
:101CA00005E047F6FF57394044F4805739438283B3
:101CB0000184F0BD828B4FF6F3731A408283828BCE
:101CC0000A4382837047F0B50C4615460022002176
:101CD0000026078C4FF6FF6C07EA0C070784828BFF
:101CE000018C4FF6FF7707EA04264FF60C773A404F
:101CF0004FF6FF7707EA03172F433A43B64FB84230
:101D00000ED0B64FB8420BD0B0F1804F08D0B44FD0
:101D1000B84205D0B34FB84202D0B34FB84206D153
:101D20004FF6FF57394046F48077394305E04FF2CC
:101D3000FF57394044F48077394382830184F0BDF2
:101D4000028B4FF2FF331A400283028B4FF6FF7370
:101D500003EA01231A4302837047F0B50C46154687
:101D6000002200210026078C4FF6EF7C07EA0C07C3
:101D70000784028B018C4FF6FF7707EA041640F6C2
:101D8000FF473A404FF6FF7707EA03373A434FF6EB
:101D9000FF7707EA05273A438F4FB8420ED08F4F9F
:101DA000B8420BD0B0F1804F08D08D4FB84205D06B
:101DB0008C4FB84202D08C4FB84206D14FF6DF7735
:101DC000394046F01007394305E04FF65F77394058
:101DD00044F01007394302830184F0BD028B4FF6B3
:101DE000F3731A400283028B0A4302837047F0B5F3
:101DF0000C46154600220021068C4FF6FE773E4029
:101E00000684028B018C4FF60C7632407E1C06EA6B
:101E100003162E433243704EB0420ED06F4EB04286
:101E20000BD0B0F1804F08D06D4EB04205D06D4E52
:101E3000B04202D06C4EB04206D14FF6FD76314032
:101E400044F00106314305E04FF6F576314044F0A9
:101E50000106314302830184F0BD70B505460C468E
:101E60005D4885420ED05D4885420BD0B5F1804F6C
:101E700008D05B48854205D05A48854202D05A486E
:101E8000854200D100E000BF208850B92389A28894
:101E900061882846FFF7ABFFE1882846FFF79EFFE1
:101EA00025E0208804280AD12389A2886188284651
:101EB000FFF753FFE1882846FFF742FF17E020882D
:101EC00008280AD12389A28861882846FFF7FBFEEB
:101ED000E1882846FFF7EEFE09E02389A2886188A1
:101EE0002846FFF7A6FEE1882846FFF795FE70BD5D
:101EF0002DE9F04105460C4600260127608808B907
:101F0000022600E00026A088012801D1022700E077
:101F100001272088A0B92389A28861882846FFF775
:101F200066FFE1882846FFF759FF23893A46314684
:101F30002846FFF712FFE1882846FFF701FF13E06C
:101F40002389A28861882846FFF707FFE188284691
:101F5000FFF7F6FE23893A4631462846FFF747FF4A
:101F6000E1882846FFF73AFFBDE8F0810A884B88F0
:101F70001A438B881A43CB881A430B891A434B891F
:101F80001A438B891A43A0F8442070474FF6FF711B
:101F9000818000210180C180418001727047002151
:101FA000018041808180C180018141818181C18125
:101FB0007047002101804180012181800021C18082
:101FC000018170470021018041808180C1800181B1
:101FD0004181818170470000002C014000340140A4
:101FE0000004004000080040000C004021B10288BD
:101FF00042F00102028004E002884FF6FE731A40AC
:102000000280704731B1B0F8442042F40042A0F899
:10201000442005E0B0F84420C2F30E02A0F84420AA
:1020200070471AB183890B43838102E083898B4314
:10203000838170478182704741EA0203A0F84830EB
:1020400070471AB183890B43838102E083898B43F4
:102050008381704701894FF6F87211400181704702
:102060000A46002101894FF68F73194011430181FF
:10207000704730B504460D4629462046FFF7F0FF6D
:10208000208940F00700208130BD2DE9F041044651
:102090000D4616461F46602D06D13B4601223146AD
:1020A0002046FFF75AFE05E03B4601223146204616
:1020B000FFF79DFE29462046FFF7D2FF208940F01A
:1020C00007002081BDE8F08130B50C460021018970
:1020D000C9B24FF6FF7505EA032515432543294389
:1020E000018130BD2DE9F04105460E461746984660
:1020F000002443463A4631462846FFF7E5FF2C893F
:102100004FF6F870044044F007044FF68F70044017
:1021100044F070042C81BDE8F081F0B504460D4612
:1021200016461F463B46324629462046FFF7CCFF5F
:10213000208940F480402081F0BD01858282704773
:102140000A46002101884FF68F7319401143018020
:102150007047F0B50C4615461E46002100220023AC
:102160000189028B038C4FF6F877394021434FF6F3
:10217000FC473A4040F201173A434FF6DD773B40C7
:102180004FF6FF7707EA06172F433B43018102838F
:102190000384F0BD0A460021018B4FF68F7319406E
:1021A0001143018370470A460021018B48F6FF73F3
:1021B00019404FF6FF7303EA022319430183704766
:1021C0000A460021818B4FF68F731940114381839A
:1021D00070470A460021818B48F6FF7319404FF67D
:1021E000FF7303EA022319438183704721B10288F8
:1021F00042F08002028004E002884FF67F731A40AA
:102200000280704721B1828842F00402828004E09B
:1022100082884FF6FB731A408280704721B1828812
:1022200042F00802828004E082884FF6F7731A4079
:102230008280704721B1828842F00102828004E0EE
:1022400082884FF6FE731A40828070470A4600214A
:10225000018B4FF6F77319401143018370470A460B
:102260000021018B4FF2FF7319404FF6FF7303EA11
:1022700002231943018370470A460021818B4FF6E0
:10228000F77319401143818370470A460021818BFF
:102290004FF2FF7319404FF6FF7303EA022319430D
:1022A000818370470A460021018B4FF6FB7319406A
:1022B0001143018370470A460021018B4FF6FF331B
:1022C00019404FF6FF7303EA022319430183704755
:1022D0000A460021818B4FF6FB731940114381831D
:1022E00070470A460021818B4FF6FF3319404FF6A5
:1022F000FF7303EA02231943818370470A460021D2
:10230000018B4FF67F7319401143018370470A46D2
:102310000021018BC1F30E014FF6FF7303EA022384
:102320001943018370470A460021818B4FF67F7362
:1023300019401143818370470A460021818BC1F304
:102340000E014FF6FF7303EA02231943818370479E
:102350000A460021018C4FF6FD7319401143018498
:1023600070470A460021018C4FF6F773194011435C
:10237000018470470A460021018C4FF6DF73194033
:102380004FF6FF7303EA02131943018470470A46AC
:102390000021018C4FF67F7319404FF6FF7303EA5B
:1023A00002131943018470470A460021018C4FF63D
:1023B000FF5319404FF6FF7303EA022319430184C8
:1023C00070470A460021018C4FF2FF7319404FF607
:1023D000FF7303EA02231943018470470A46002170
:1023E000018C4DF6FF7319404FF6FF7303EA023379
:1023F00019430184704730B5002301248C40A3B2F7
:10240000048C9C430484048C02FA01F5ADB22C4385
:10241000048430BD30B5002304248C40A3B2048C66
:102420009C430484048C02FA01F5ADB22C4304846D
:1024300030BD70B503460020002418461830012531
:102440008D40ACB21D8CA5431D8409B1082909D16A
:1024500000EB6100056825F070050560056815430F
:1024600005600EE00D1FC5F34E052844056825F4F0
:10247000E045056005684FF6FF7606EA022635431B
:10248000056070BD21B1028842F00202028004E0C2
:1024900002884FF6FD731A400280704721B102880E
:1024A00042F00402028004E002884FF6FB731A40F7
:1024B0000280704721B1828842F08002828004E06D
:1024C00082884FF67F731A408280704702884FF6E9
:1024D000F7731A40028002880A430280704782889C
:1024E0004FF68F731A40828082880A438280704739
:1024F00002894FF6F8731A40028102890A43028169
:10250000704702894FF67F731A40028102890A439D
:10251000028170478184704781857047818670474A
:102520000187704781877047A0F840107047028884
:102530004FF6FF431A40028002880A430280704728
:102540000146888E70470146088F70470146888F84
:1025500070470146B1F8400070470146888C7047CB
:102560000146088D704702460020138A0B400BB1CC
:10257000012000E000207047CA430282704730B556
:102580000246002000230024158A05EA01039589EC
:1025900005EA010413B10CB1012000E0002030BDB8
:1025A000CA4302827047000010B50446FB488442CB
:1025B00009D101218803FFF79FF800214FF48040E3
:1025C000FFF79AF832E0F648844209D10121480425
:1025D000FFF79FF800214FF40030FFF79AF825E04D
:1025E000F048844209D101218804FFF792F80021C4
:1025F0004FF48020FFF78DF818E0EB48844209D1B2
:102600000121C804FFF785F800214FF40020FFF7EF
:1026100080F80BE0E548844208D101210805FFF766
:1026200078F800214FF48010FFF773F810BD2DE902
:10263000F04786B005460E460024A24600BFA146DC
:102640000027B08900B100BF2F462C8A4CF6FF70DE
:102650000440F08804432C82AC894EF6F310044009
:10266000B08831890843718908430443AC81AC8A3E
:102670004FF6FF400440B0890443AC8201A8FEF746
:10268000B4FFC648874202D1DDF810A001E0DDF8B2
:102690000CA0A88900F4004040B10AEBCA0000EB8E
:1026A0000A1031684900B0FBF1F807E00AEBCA00F4
:1026B00000EB0A1031688900B0FBF1F86420B8FB28
:1026C000F0F004012009642101FB1089A88900F4BD
:1026D000004040B1322000EBC900B0FBF1F000F047
:1026E0000700044308E0322000EB09106421B0FB2E
:1026F000F1F000F00F0004432C8106B0BDE8F08734
:102700004FF41651016000218180C18001810C21AC
:10271000418100218181704710B502460020108A56
:102720004FF2FF0318400B884C8823438C882343C7
:10273000CC8823431843108210BD002101804180C2
:102740008180C180704721B1828942F40052828128
:1027500004E082894DF6FF731A4082817047F0B51C
:102760000346002400260025002040F66A17B942DF
:1027700000D100BF1846C1F3421401F01F06012723
:1027800007FA06F5012C01D10C3004E0022C01D12E
:10279000103000E014301AB107682F43076002E0E0
:1027A0000768AF430760F0BD1AB1838A0B43838289
:1027B00002E0838A8B4383827047028A4FF6F0736C
:1027C0001A400282028A0A430282704782894FF2CB
:1027D000FF731A40828182890A438281704721B146
:1027E000828942F00202828104E082894FF6FD7301
:1027F0001A4082817047028A4FF6DF731A400282C4
:10280000028A0A430282704721B1028A42F480425E
:10281000028204E0028A4BF6FF731A40028270477C
:10282000C1F308028280704701468888C0F308001F
:102830007047818941F0010181817047028BD2B2DA
:102840000283028B42EA012202837047028B02F468
:102850007F420283028B0A430283704721B1828A3E
:1028600042F02002828204E0828A4FF6DF731A402F
:102870008282704721B1828A42F01002828204E093
:10288000828A4FF6EF731A408282704721B1828AA2
:1028900042F00802828204E0828A4FF6F7731A40FF
:1028A0008282704721B1828942F40042828103E032
:1028B0008289C2F30E028281704721B1828A42F47A
:1028C0000062828204E0828A4FF2FF731A408282A1
:1028D0007047828A4FF6FB731A408282828A0A43CB
:1028E0008282704721B1828A42F00202828204E031
:1028F000828A4FF6FD731A4082827047024600209A
:10290000B1F5007F00D100BF13880B400BB101204F
:1029100000E00020704701F40072B2F5007F00D1A2
:1029200000BFCA430280704770B5024600240023EE
:102930000025002040F66A16B14200D100BFC1F365
:10294000421501F01F03012606FA03F3012D02D1FF
:102950009689334006E0022D02D1168A334001E009
:10296000968A33400C12012606FA04F41688344085
:1029700013B10CB1012000E0002070BD10B50022A1
:10298000002340F66A14A14200D100BF0A120124BC
:102990009440A3B2DC43048010BD00000038014025
:1029A0000044004000480040004C004000500040FF
:1029B0000CB50020019000906C48006840F4803015
:1029C0006A49086000BF6948006800F40030009060
:1029D0000198401C0190009818B90198B0F5A06FBB
:1029E000F1D16248006800F4003010B1012000907D
:1029F00001E0002000900098012843D15C48006865
:102A000040F010005A4908600846006820F00300B2
:102A100008600846006840F00200086053484068BB
:102A2000524948600846406848600846406840F49B
:102A3000806048600846406820F47C104860084682
:102A4000406840F4E81048600846006840F0807034
:102A5000086000BF4548006800F000700028F9D009
:102A60004248406820F003004049486008464068FA
:102A700040F00200486000BF3C48406800F00C0095
:102A80000828F9D10CBD10B5FFF792FF10BD10B5A5
:102A90003648006840F00100344908600846406844
:102AA00034490840314948600846006832490840C6
:102AB0002E4908600846006820F480200860084617
:102AC000406820F4FE0048604FF41F008860FFF764
:102AD000DAFF4FF000602949086010BD10B50021F1
:102AE00000200022214B5B6803F00C0121B1042976
:102AF00006D0082928D107E0214B224C236027E08B
:102B00001F4B204C236023E0184B5B6803F47010CC
:102B1000164B5B6803F48032022303EB904022B92A
:102B2000194B4343174C23600DE0104B5B6803F4D3
:102B3000003323B1144B4343124C236003E0104B8A
:102B40004343104C236003E00D4B0E4C236000BF49
:102B500000BF064B5B68C3F303130C4CE15C094BED
:102B60001B68CB40074C236010BD000000100240E2
:102B7000002002400000FFF8FFFFF6FE08ED00E035
:102B800000127A004000002000093D0044000020AF
:102B900008B501210820FEF795FD4FF40040ADF87F
:102BA000000010208DF8030003208DF80200694614
:102BB0000748FEF7ABFA08BD052807D104490C31D8
:102BC000096881F40041024A0C321160704700002C
:102BD0000008014030B500BF1F4800681F4AB0FB25
:102BE000F2F1B1F1807F01D301201DE021F07F409F
:102BF000401E4FF0E022506150170F22002807DAE4
:102C000013071D0E164B00F00F04241F1D5503E083
:102C100013071C0E134B1C5400BF00204FF0E02282
:102C200090610720106100200028D5D130BD0E49E9
:102C3000088000BF0C4909880029FBD1704700B506
:102C4000024603E04FF47A70FFF7F1FF101EA2F185
:102C500001018AB2F6D100BD4000002040420F00C1
:102C600018ED00E000E400E00C000020014600BF89
:102C7000704700BFF94A128802F04002002AF9D0DA
:102C8000C2B2F64B1B1D1A80704700BFF348008884
:102C900000F020000028F9D0F048001D0088C0F3A3
:102CA0000800704704E0EE4800780F2800D100E0EB
:102CB000F9E700BF0020EA490870704700BFE94902
:102CC00009785629FBD1E74949784129F7D1E549E7
:102CD00089785229F3D10021E24A11705170917024
:102CE0001146C97801701146097941701146497938
:102CF000817011468979C1700021DB4A1170DB4A6D
:102D0000117000BF00BF704700217B2807D100BFB2
:102D10000122D74B1A700022D64B1A7047E07D284B
:102D200006D10022D24B1A700122D34B1A703EE01A
:102D30003A2801D02C2806D1CE4A1278521CCD4B0D
:102D40001A70002133E0CA4A1278012A0BD10329F4
:102D500006DAC84A127802EB4202C84B1A445054B1
:102D60004A1CD1B223E04F2803D10122BC4B1A7078
:102D70001DE04B2807D1BA4A127802F00D02921CCE
:102D8000B74B1A7013E00D2807D1B54A127802F03C
:102D90000B02121DB24B1A7009E00A2807D1B04A83
:102DA000127802F0070242F00802AD4B1A70704729
:102DB00010B519E1B04800780128FAD1AF48007881
:102DC0005628F6D1AD4840784128F2D1AB488078FA
:102DD0005228EED1A9484079302816DBA74840791F
:102DE000392812DCA548C078303864235843A34BF7
:102DF0001B79303B03EB830300EB43039F4840798F
:102E0000303818449E4B187021E09C4800793028D7
:102E100010DB9A48007939280CDC98480079303862
:102E2000964BDB78303B03EB830300EB4300944B82
:102E300018700CE09148C078302808DB8F48C078C3
:102E4000392804DC8D48C07830388D4B18708B4899
:102E5000007A302816DB8948007A392812DC874846
:102E60008079303864235843844BDB79303B03EB63
:102E7000830300EB43038148007A30381844804BC9
:102E8000587021E07D48C079302810DB7B48C0793C
:102E900039280CDC7948C0793038784B9B79303B45
:102EA00003EB830300EB4300754B58700CE0734851
:102EB0008079302808DB71488079392804DC6F4834
:102EC000807930386E4B58706C48C07A302816DBE9
:102ED0006A48C07A392812DC6848407A303864235E
:102EE0005843664B9B7A303B03EB830300EB430371
:102EF0006248C07A30381844614B987021E05F48CE
:102F0000807A302810DB5D48807A39280CDC5B48F9
:102F1000807A3038594B5B7A303B03EB830300EB0C
:102F20004300574B98700CE05448407A302808DB37
:102F30005248407A392804DC5048407A3038504BA7
:102F400098704E48807B302816DB4C48807B3928AF
:102F500012DC4A48007B303864235843474B5B7B84
:102F6000303B03EB830300EB43034448807B303862
:102F70001844434BD87021E04048407B302810DB98
:102F80003E48407B39280CDC3C48407B30383B4B8A
:102F90001B7B303B03EB830300EB4300384BD870C3
:102FA0000CE03648007B302808DB3448007B3928A9
:102FB00004DC3248007B3038314BD87000210DE002
:102FC000002207E0002001EB41032C4C23449854DD
:102FD000501CC2B2032AF5DB481CC1B20529EFDB45
:102FE0000020254B187000E0E4E600BF10BD30B5AE
:102FF000034659E020480078012855D11F48007841
:1030000055281CD11D484078502818D1012018702F
:103010000020194C207000210EE0002207E0002063
:1030200001EB4104154D2C44A054501CC2B2032A9C
:10303000F5DB481CC0B201460529EEDB35E00F4840
:103040000078442830D10D4840784E282CD10020FB
:103050001870094C2070002123E000000038014066
:103060005B00002061000020650000206600002059
:1030700059000020580000205A000020900700202E
:103080005C000020002207E0002001EB4104394DE4
:103090002C44A054501CC2B2032AF5DB481CC0B219
:1030A00001460529EEDB00E0A4E700BF30BD70B5A6
:1030B000044600250FE0207860B121782E48FFF704
:1030C000AFFB00BF80212C48FFF718FC0028F9D087
:1030D000641C00E070BDEEE710B586B00446012127
:1030E00044F20500FEF7EEFA4FF40070ADF814005C
:1030F00003208DF8160018208DF8170005A91F4829
:10310000FEF704F84FF48060ADF8140004208DF849
:10311000170005A91948FDF7F9FF25208DF80000D3
:1031200000208DF8010003208DF8020001208DF8A9
:1031300003006846FDF729FA01940020ADF8080065
:10314000ADF80A00ADF80C00ADF810000C20ADF899
:103150000E0001A90848FFF76AFA012240F2255142
:103160000548FFF7FCFA01210348FFF7ECFA06B027
:1031700010BD000090070020003801400008014009
:1031800038B5502001F0C1F98DF80000592001F048
:10319000BCF98DF801009DF8001001F00C01490008
:1031A0009DF8012001EB521002F016FAFB4908606D
:1031B000512001F0AAF9FA490860F8480168F94875
:1031C00001F0BAFF044602F01DFAF749086038BD65
:1031D00010B5FF21062001F008FAFF21072001F0B9
:1031E00004FA10BD2DE9F84FDFF8C0A3EC490968D7
:1031F00041F29412501A02F0EFF95146009002F099
:1032000025F8834602F030FA07460022E84B02F028
:103210005BF8054602F00FFAC0F30714E0490968AD
:10322000C1F5166002F0D8F95146009002F00EF890
:10323000834602F019FA07460022DD4B02F044F8FB
:10324000054602F0F8F9C0F307192146092001F0FC
:10325000CCF949460A2001F0C8F9BDE8F88F10B54D
:10326000FFF7C0FF10BD10B500240AE03220FFF7C1
:10327000E6FCD04A115DD04A105D01F0B6F9601C41
:10328000C4B20B2CF2DB10BD10B5FFF7ECFF10BD84
:1032900010B501221102C948FDF7E9FF6420FFF7CC
:1032A000CEFC00224FF48071C448FDF7E0FF10BD52
:1032B00010B5FFF7EDFFFFF7E7FFFFF761FFFFF73F
:1032C000CEFFFFF785FF10BD10B51921042001F0D6
:1032D0008CF91420FFF7B3FC1A21042001F085F9C2
:1032E00010BD10B5FF21002001F07FF9FFF7ECFFC2
:1032F00010BD1FB50C2001F008F903900D2001F05E
:1033000004F90290039804B2029840EA042004B23F
:10331000A548006860434FF47A7190FBF1F0A04932
:103320000988084404B2A6480460C4F30720019049
:10333000E0B20090A349019888700098C8700846D0
:103340008078A14988709F48C078C8709F490198CB
:1033500088700098C8701FBD1CB50E2001F0D5F80C
:103360008DF805000F2001F0D0F88DF804009DF8CD
:1033700005409DF8040040EA04248B48006860433F
:103380004FF47A7190FBF1F08549096844188C4834
:103390004460C4F30720ADF80200E0B2ADF80000CD
:1033A000BDF8020087490871BDF800004871084661
:1033B000007985490871834840794871BDF8020059
:1033C00082490871BDF8000048711CBD1CB5102071
:1033D00001F09BF88DF80500112001F096F88DF8AA
:1033E00004009DF805409DF8040040EA04246E485E
:1033F000006860434FF47A7190FBF1F06849096806
:1034000044186F488460200A8DF80100E0B28DF8FE
:1034100000009DF801006B4988719DF80000C8719B
:1034200008468079684988716648C079C8719DF8F6
:103430000100664988719DF80000C8711CBD1CB56B
:10344000122001F062F88DF80500132001F05DF8FC
:103450008DF804009DF805409DF8040040EA04241E
:103460005148006860434FF47A7190FBF1F04C4989
:10347000096844185248C460200A8DF80100E0B27F
:103480008DF800009DF801004E4908729DF800007B
:1034900048720846007A4E4988704A48407AC87097
:1034A0009DF80100494908729DF8000048721CBD52
:1034B0001CB5142001F029F88DF80500152001F045
:1034C00024F88DF804009DF805409DF8040040EABA
:1034D000042004B23448006860434FF47A7190FBD2
:1034E000F1F02F490988084404B235480461200AE4
:1034F0008DF80100E0B28DF800009DF8010031491F
:1035000088729DF80000C8720846807A30490871B8
:103510002C48C07A48719DF801002C4988729DF8AA
:103520000000C8721CBD1CB5162000F0EEFF8DF81F
:103530000500172000F0E9FF8DF804009DF8054014
:103540009DF8040040EA042004B217480068604374
:103550004FF47A7190FBF1F011490988084404B2E4
:1035600017484461200A8DF80100E0B28DF8000090
:103570009DF80100134908739DF800004873084640
:10358000007B134988710F48407BC8719DF801008A
:103590000E4908739DF8000048731CBD70000020A0
:1035A000680000200080B6436C0000202506C13E64
:1035B0000000E03F470300203C03002000080140DA
:1035C000E007002074000020FE02002068020020B6
:1035D000060300201CB5182000F097FF8DF80500A9
:1035E000192000F092FF8DF804009DF805409DF829
:1035F000040040EA042004B2FE48006860434FF42F
:103600007A7190FBF1F0FC490988084404B2FB4848
:103610008461200A8DF80100E0B28DF800009DF869
:103620000100F74988739DF80000C8730846807B45
:10363000F4498870F248C07BC8709DF80100F249D7
:1036400088739DF80000C8731CBD1CB51A2000F0DB
:103650005CFF8DF805001B2000F057FF8DF804007B
:103660009DF805409DF8040040EA0424E148006804
:1036700060434FF47A7190FBF1F0DF490968441818
:10368000DE48C461200A8DF80100E0B28DF8000028
:103690009DF80100DA4908749DF800004874084656
:1036A000007CD8490871D648407C48719DF80100DB
:1036B000D54908749DF8000048741CBD1CB51C2039
:1036C00000F023FF8DF805001D2000F01EFF8DF88F
:1036D00004009DF805409DF8040040EA042004B26F
:1036E000C448006860434FF47A7190FBF1F0C2491E
:1036F0000988084404B2C1480462200A8DF8010018
:10370000E0B28DF800009DF80100BD4988749DF875
:103710000000C8740846807CBA498871B848C07CEB
:10372000C8719DF80100B84988749DF80000C874FC
:103730001CBD1CB51E2000F0E8FE8DF805001F2002
:1037400000F0E3FE8DF804009DF805409DF80400AC
:1037500040EA042004B2A748006860434FF47A713D
:1037600090FBF1F0A4490988084404B2A3484462DC
:10377000200A8DF80100E0B28DF800009DF80100EC
:103780009F4908759DF8000048750846007D9F49CF
:1037900088709B48407DC8709DF801009C498870E6
:1037A0009DF80000C8701CBD0021002004E0934A71
:1037B00052F820201144401C0A28F8DB8F4A9162FD
:1037C000128D120A8E4B9A758C4A92F82820DA755F
:1037D0001A46927D8F4B9A70894AD27DDA70884A58
:1037E000927D8B4B9A73864AD27DDA73704770B59F
:1037F0008249486801F0F0FE04468749204601F0FE
:10380000EDFC0646854901F021FD0546844901F09D
:10381000EBFC0446204601F0F5FE7849C1F8800033
:103820000846B0F88000000A75490876734890F899
:10383000800048760846007E754908747048407ECE
:1038400048746F48007E734908716D48407E487126
:1038500070BD10B5012211027248FDF708FD32203B
:10386000FFF7EDF900224FF480716E48FDF7FFFC81
:1038700010BD2DE9F843322000F047FE8DF801001D
:10388000332000F042FE8DF800009DF800009DF806
:10389000011000EB0129B9F5FA4F20D8484601F094
:1038A000A4FE0746604A614B01F0B5FD054601F0F4
:1038B000C2FE04465149CC62200A51498876CC7632
:1038C0000846807E534988714D48C07EC8714C4877
:1038D000807E4F4988744A48C07EC87422E04FF603
:1038E000FF71A1EB090001F080FE05464E4A4F4BE7
:1038F00001F091FD074601F09EFE04463F49CC626F
:10390000200A3F498876CC760846807E41498871F6
:103910003B48C07EC8713A48807E3D49887438482B
:10392000C07EC874BDE8F8832DE9F04F95B000BFA4
:103930003F4814903F4813903F4812903F481190E1
:103940002E2000F0E2FD8DF841002F2000F0DDFD7B
:103950008DF840009DF840009DF8411040EA012A92
:103960004FF4BF700AFB00F04FF47A7190FBF1F056
:1039700042F2107148434FF4BF710AFB01F14FF45A
:103980007A7291FBF2F140F6E442511A90FBF1FA9F
:10399000119801F069FECDE90E01129801F064FE64
:1039A000CDE90401504601F017FE0190149901F091
:1039B0004DFC834601F058FECDE9020102F03CFDCA
:1039C0000646DDE9042301F098FDCDE908014FF03A
:1039D0007E50139901F03AFC064601F045FECDE910
:1039E0000601DDE9082301F06FFC02460B46CDE934
:1039F0000A0125E06C00002068000020E00700209C
:103A0000740000200E03002068020020160300202E
:103A10009A0200202603002000002F450000AF443A
:103A20000000C84200080140E17A14AE47E10040BE
:103A300000401C463313954300405345339388435D
:103A40000020FC4901F059FDCDE90C01DDE90E2310
:103A500001F0DBFC04460022F74B01F035FC804608
:103A600001F015FEF54908600846006801F0CAFD3E
:103A7000F3490863084690F83000F2490877084691
:103A8000007FF1498870EF48007FF049887015B0D9
:103A9000BDE8F08F10B50121084600F0A6FD10BD6D
:103AA00010B50221012000F0A0FD10BD10B50421C9
:103AB000012000F09AFD10BD10B50821012000F092
:103AC00094FD10BD10B51021012000F08EFD10BD39
:103AD00010B50121022000F088FD10BD10B50221B3
:103AE000084600F082FD10BD10B50421022000F050
:103AF0007CFD10BD10B50821022000F076FD10BD40
:103B000010B51021022000F070FD10BD10B500218D
:103B1000012000F06AFD0021022000F066FD10BDCA
:103B200010B5044614B9FFF7B5FF31E0012C02D1FE
:103B3000FFF7B6FF2CE0022C02D1FFF7B7FF27E01A
:103B4000032C02D1FFF7B8FF22E0042C02D1FFF7CB
:103B5000B9FF1DE0052C02D1FFF7BAFF18E0062CD3
:103B600002D1FFF7BBFF13E0072C04D10421022090
:103B700000F03BFD0CE0082C04D10821022000F0ED
:103B800034FD05E0092C03D11021022000F02DFDA9
:103B900010BD0021AE4A1160AE4A1160A849096803
:103BA000AD4A1160AD4A116000201DE0A44951F8F2
:103BB0002010AA4A1268914206DDA14951F820104E
:103BC000A64A1160A34908609D4951F82010A24AF5
:103BD0001268914206DA9A4951F820109E4A116003
:103BE0009B490860411CC8B20A28DFDB704710B54A
:103BF0000446FFF7CEFF9948006897490968401AC4
:103C0000A04204DD93490878FFF78AFF01E0FFF73F
:103C10007DFF10BD10B5052000F077FC90490870BD
:103C20000846007800F002008E4908708C48007841
:103C300000F001008C4908708A4800788149487773
:103C40008948007888770846407F7F49C8707D485A
:103C5000807F087110BD10B5FFF7DCFF8148007848
:103C600020B14321052000F0C0FC03E041210520E4
:103C700000F0BBFC10BD10B5FFF7CCFF7948007811
:103C800020B14221052000F0B0FC03E040210520D6
:103C900000F0ABFC10BD10B5FFF7BCFF7248007818
:103CA00020B14321052000F0A0FC03E042210520C3
:103CB00000F09BFC10BD10B5FFF7ACFF6A48007820
:103CC00020B14121052000F090FC03E040210520B7
:103CD00000F08BFC10BD10B54321052000F085FCE1
:103CE00010BD10B54021052000F07FFC10BD70B55F
:103CF00090B0342103A801F014FA002408E05148E0
:103D0000015D5A48FEF78CFD0A20FEF798FF641CFF
:103D1000322CF4DB00221421554800F071FF64209E
:103D2000FEF78DFF00221421524800F069FF642045
:103D3000FEF785FF00221421444800F061FF0122B4
:103D400008214D4801F08EF90520FEF778FF022288
:103D500008214A4801F086F90520FEF770FF03228A
:103D60000821474801F07EF90520FEF768FF04228C
:103D70000821444801F076F90520FEF760FF05228E
:103D80000821414801F06EF90520FEF758FF062290
:103D900008213E4801F066F90520FEF750FF072292
:103DA0000821294801F05EF90520FEF748FF38A0F8
:103DB000FFF77DF9C820FEF742FF35A0FFF777F93E
:103DC000C820FEF73CFF35A0FFF771F9C820FEF7C9
:103DD00036FF35A000901A4834A237A1036803A823
:103DE00001F03CFE03A8FFF762F9C820FEF727FFA9
:103DF0002DA00090124837A239A1436803A801F012
:103E00002DFE03A8FFF753F9C820FEF718FF26A0E0
:103E100000900B4839A23CA1036903A801F01EFEE3
:103E200003A8FFF744F9C820FEF709FF1EA0009081
:103E3000034877E00000F03F0000E03F540300201B
:103E4000E0070020740000202E030020CC02002098
:103E500064030020600300205C030020580300205E
:103E600068030020690300206A0300200038014035
:103E7000680200209A020020FE02002006030020B3
:103E80000E030020160300201E030020260300203E
:103E9000434C52283631293B0D0A00004449522830
:103EA00031293B0D0A0000006D560000B5DAD2BB87
:103EB000BDDAB5E7D1B93A00444356313628302C43
:103EC000302C27257325642573272C33293B0D0AB5
:103ED00000000000B5DAB6FEBDDAB5E7D1B93A00A8
:103EE000444356313628302C32302C272573256434
:103EF0002573272C33293B0D0A000000B5DAC8FDD5
:103F0000BDDAB5E7D1B93A00444356313628302CF2
:103F100034302C27257325642573272C33293B0D3A
:103F20000A0000008DA290A1436903A801F096FD4C
:103F300003A8FFF7BCF8C820FEF781FEAFF2980097
:103F40000090904890A293A1836903A801F086FD98
:103F500003A8FFF7ACF8C820FEF771FEAFF2B80077
:103F60000090884892A295A1436A03A801F076FDCB
:103F700003A8FFF79CF84FF47A70FEF760FEAFF2EB
:103F8000F000FFF794F8C820FEF759FEC820FEF7AE
:103F900056FEAFF2EC0000907A488FA290A1836A9F
:103FA00003A801F05BFD03A8FFF781F8C820FEF726
:103FB00046FE92A00090734891A2AFF2DC01D0F8C7
:103FC000803003A801F04AFD03A8FFF770F8C8206D
:103FD000FEF735FE8D48006801F046FB05468CA0D3
:103FE0008CA2CDE9005102908DA103A801F036FD0D
:103FF00003A8FFF75CF8C820FEF721FE8FA0009011
:1040000060488FA258A1C36A03A801F027FD03A846
:10401000FFF74DF8C820FEF712FEAFF24C128AA14E
:1040200003A801F01BFD03A8FFF741F86420FEF789
:1040300006FE10B070BD10B5FFF75BF9FFF78CF905
:10404000FFF736FAFFF76FFAFFF7C4FAFFF771FBD5
:10405000FFF7AAFBFFF7CBFBFFF766FCFFF709FCB6
:10406000FFF7D8FDFFF743FE10BD2DE97046002095
:1040700000F04BFA044604F0080504F0040604F0CE
:10408000020904F0010A082D01D0082F0AD1882165
:10409000002000F0AAFA01207149086071A001F027
:1040A000CDFC02E000206E490860042E02D0B8F179
:1040B000040F0AD101206E4908608421002000F01D
:1040C00094FA6CA001F0BAFC02E000206849086094
:1040D000B9F1020F0AD18221002000F086FA0120F6
:1040E0006749086067A001F0A9FC02E0002064496C
:1040F0000860BAF1010F0AD10120654908608121E9
:10410000002000F072FA63A001F098FC02E00020A9
:104110005F490860BDE8708670B503460C46002014
:1041200016E0802111E000F080051DB14506280E43
:10413000504001E04506280E1D780D4005B1504065
:104140000D4601EBD576C6F347010029EBD15B1C88
:10415000251EA4F10106F4B2E3D170BDB5DACBC4DB
:10416000BDDAB5E7D1B93A00444356313628302C90
:1041700036302C27257325642573272C33293B0DD6
:104180000A000000E0070020B5DACEE5BDDAB5E7A9
:10419000D1B93A00444356313628302C38302C27D8
:1041A000257325642573272C33293B0D0A00000055
:1041B000B5DAC1F9BDDAB5E7D1B93A0044435631B1
:1041C0003628302C3130302C272573256425732771
:1041D0002C33293B0D0A0000D7DCB5E7D1B93A00F2
:1041E000444356313628302C30302C272573256433
:1041F0002573272C33293B0D0A0000002500000001
:10420000B5E7B3D8534F43CEAA3A00005403002079
:10421000A1E60000B5E7B3D8CEC2B6C8CEAA3A0030
:10422000444356313628302C34302C272573252E24
:1042300032662573272C33293B0D0A006D4100009F
:10424000B5E7C1F73A000000444356323428302C19
:1042500032302C272573272C33293B0D0A00000010
:10426000780300207061636B2055560A000000003F
:104270007C0300207061636B204F560A0000000031
:10428000800300207061636B205343440A000000E8
:10429000840300207061636B204F43440A000000D8
:1042A00008B501210820FDF70DFA4FF48070ADF834
:1042B000000003208DF8020014208DF803006946E9
:1042C000F848FCF723FF4FF40070ADF8000003201E
:1042D0008DF8020014208DF803006946F148FCF7C0
:1042E00015FF08BD322001E0411EC8B20028FBD1F5
:1042F000704710B54FF40071EA48FCF7B4FF4FF473
:104300008071E848FCF7AFFFFFF7ECFF4FF4007156
:10431000E448FCF78EFF08B9002010BD4FF400718F
:10432000E048FCF7A2FFFFF7DDFF4FF40071DD4826
:10433000FCF77FFF08B10020EFE74FF40071D94888
:10434000FCF793FFFFF7CEFF0120E6E710B54FF42F
:104350008071D448FCF789FFFFF7C4FF4FF4007168
:10436000D048FCF782FFFFF7BDFF4FF48071CD48C6
:10437000FCF779FFFFF7B6FF4FF40071C948FCF76F
:1043800072FFFFF7AFFF10BD10B54FF48071C54845
:10439000FCF76BFFFFF7A6FF4FF40071C148FCF775
:1043A00064FFFFF79FFF4FF48071BE48FCF75BFF8F
:1043B000FFF798FF4FF48071BA48FCF756FFFFF7FC
:1043C00091FF10BD10B54FF48071B648FCF74DFF5A
:1043D000FFF788FF4FF40071B248FCF744FFFFF786
:1043E00081FF4FF48071AF48FCF73DFFFFF77AFF84
:1043F0004FF48071AB48FCF738FFFFF773FF10BD37
:1044000010B54FF48071A748FCF72FFFFFF76AFF44
:104410004FF40071A348FCF726FFFFF763FF4FF44A
:104420008071A048FCF71FFFFFF75CFF4FF400719D
:104430009C48FCF7FEFE30B14FF480719948FCF7C0
:1044400014FF002010BD4FF480719648FCF70DFF5B
:104450000120F7E770B5044608251FE04FF480718E
:104460009048FCF702FFFFF73DFF04F0800028B101
:104470004FF400718B48FCF7F6FE04E04FF4007136
:104480008848FCF7F2FE6006040EFFF72BFF4FF49E
:1044900080718448FCF7E7FEFFF724FF281EA5F192
:1044A0000101CDB2DAD14FF480717E48FCF7DDFE18
:1044B00070BD70B508250024A9017A48FCF7D3FE29
:1044C00017E06006040E4FF480717648FCF7CDFECD
:1044D000FFF708FF4FF480717248FCF7C4FEFFF746
:1044E00001FF4FF400716F48FCF7A3FE08B144F0E0
:1044F0000104281EA5F10101CDB2E2D14FF4807173
:104500006848FCF7B2FE204670BD70B50446002531
:10451000FFF7EFFE1020FFF79DFFFFF771FFE0B2FE
:10452000FFF798FFFFF76CFFFFF7E3FE1120FFF79F
:1045300091FFFFF765FFFFF7BCFF0546FFF706FF9A
:10454000284670BD2DE9F04107460C46002600259F
:1045500009E036023919491B491E88B2FFF7D5FF19
:104560000644681CC5B2A542F3DB3046BDE8F081C5
:1045700070B504460E46FFF7BCFE2546E11704EB76
:1045800011610912102202EB4101C8B2FFF762FF6C
:10459000FFF736FFE11704EB11610912A4EB0121CB
:1045A000C8B2FFF757FFFFF72BFF3046FFF752FF68
:1045B000FFF726FFFFF7CAFE0A20FEF740FB70BD9B
:1045C0002DE9F04105460E461746002409E0E200B9
:1045D00046FA02F2D1B22A1990B2FFF7C9FF601C65
:1045E000C4B2BC42F3DBBDE8F08138B504460D46E9
:1045F00010208DF80000E0B28DF80100E8B28DF8CF
:104600000200072203216846FFF786FDC0B28DF83D
:104610000300FFF76EFE9DF80000FFF71BFFFFF79A
:10462000EFFE9DF80100FFF715FFFFF7E9FE9DF88B
:104630000200FFF70FFFFFF7E3FE9DF80300FFF70F
:1046400009FFFFF7DDFEFFF781FE0A20FEF7F7FA0C
:1046500038BD70B506460C461546FFF74AFE08B948
:10466000002070BD04F4E06145EAE1114FF6FE72EE
:1046700001EA0200FFF7EEFEFFF7C2FE18B9FFF7EE
:1046800065FE0020EDE7E0B2FFF7E4FEFFF7B8FEBD
:104690003046FFF7DFFEFFF7B3FEFFF757FE0120BE
:1046A000DFE70000000C01402DE9F04106460C4612
:1046B00015461F46FFF71DFE10B90020BDE8F0812A
:1046C00005F4E06147EAE1114FF6FE7201EA0200EB
:1046D000FFF7C0FEFFF794FE18B9FFF737FE002082
:1046E000ECE7E8B2FFF7B6FEFFF78AFEFFF701FE40
:1046F00005F4E06147EAE11141F00100FFF7AAFE8D
:10470000FFF77EFE0CE0FFF7D4FE3070012C02D1E3
:10471000FFF758FE01E0FFF737FE761C601E84B2FB
:10472000002CF0D1FFF712FE0120C7E708B50121E8
:104730000C20FCF7C7FF4FF48070ADF8000010208C
:104740008DF8030003208DF8020069460F48FCF73E
:10475000DDFC01210846FCF7B5FF01210C48FCF700
:10476000A6FD4FF40040ADF8000010208DF80300C6
:1047700003208DF8020069460648FCF7C7FC0022BA
:104780004FF400410348FCF772FD08BD00080140EA
:1047900000023000000C014008B54FF4A060FBF7A8
:1047A000EFFE1C208DF8000001208DF80100002094
:1047B0008DF8020001208DF803006846FBF7E5FE46
:1047C0004FF4A060FBF7DCFE1D208DF800000220F6
:1047D0008DF8010000208DF8020001208DF8030003
:1047E0006846FBF7D2FE08BD3EB505460C460121E2
:1047F0000846FCF774FF4FF08040FCF7C7FF4FF00E
:104800008040FDF727FCADF80450ADF800400020D3
:10481000ADF80600ADF8020069464FF08040FDF7A4
:1048200089F801218807FDF7A7FE00214FF080409D
:10483000FDF7DCFC012211469007FDF7F2FB012198
:104840008807FDF7D3FBFFF7A7FF3EBD3EB5054642
:104850000C4601210220FCF742FF2848FCF796FF96
:104860002648FDF7F7FBADF80450ADF800400020F6
:10487000ADF80600ADF8020069462048FDF75AF889
:1048800001211E48FDF778FE00211C48FDF7AEFC13
:10489000012211461948FDF7C4FB01211748FDF715
:1048A000A5FB3EBD3EB505460C4601210420FCF7A4
:1048B00016FF1348FCF76AFF1148FDF7CBFBADF874
:1048C0000450ADF800400020ADF80600ADF802003D
:1048D00069460B48FDF72EF801210948FDF74CFE0B
:1048E00000210748FDF782FC012211460448FDF72C
:1048F00098FB01210248FDF779FB3EBD0004004012
:104900000008004070B505460C4645F25550FCF7CE
:104910004BFD2846FCF74BFD2046FCF74BFDFCF712
:104920004CFDFCF74FFD70BD10B5FCF746FD10BD0A
:104930001FB50020ADF80400ADF80600ADF8080082
:104940000C20ADF80A000020ADF80C000121FE4853
:10495000FDF7F9FE01218803FCF7B4FE4FF4165071
:1049600000906946F848FDF762FE012240F22551A9
:10497000F548FDF7F4FE0121F348FDF7E4FE00BF22
:10498000F148008800F080000028F9D00D20EE49A1
:10499000091D088000BFEC48008800F08000002856
:1049A000F9D00A20E849091D08801FBD70B50346EB
:1049B0000C4603B10CB9002070BD012A50D1002172
:1049C0004BE0585C632810D900BFDF48008800F036
:1049D00080000028F9D0585C6425B0FBF5F0303039
:1049E000C0F30800D84D2D1D2880585C092815D922
:1049F00000BFD548008800F080000028F9D0585C3E
:104A00006425B0FBF5F605FB16000A25B0FBF5F0B2
:104A10003030C0F30800CC4D2D1D288000BFCA489F
:104A2000008800F080000028F9D0585C0A25B0FB0F
:104A3000F5F605FB16003030C0F30800C24D2D1D01
:104A4000288000BFC048008800F080000028F9D00E
:104A50002020BD4D2D1D2880491CA142B1D35DE011
:104A6000022A4BD1002146E000BFB748008800F081
:104A700080000028F9D0585C0925B5EB201F0AD228
:104A8000585C0A25C5EB20104130C0F30800AE4D3C
:104A90002D1D288006E0585C302505EB2010AA4D1E
:104AA0002D1D288000BFA848008800F08000002845
:104AB000F9D0585C00F00F00092809D9585C00F0C3
:104AC0000F003730C0F308009F4D2D1D288006E0F1
:104AD000585C00F00F0030309B4D2D1D288000BF2A
:104AE0009948008800F080000028F9D02020964DD9
:104AF0002D1D2880491CA142B6D30FE000210BE0F8
:104B000000BF9148008800F080000028F9D0585C70
:104B10008D4D2D1D2880491CA142F1D301204BE76A
:104B20008A490870704789480078704700B587B097
:104B300001218748FCF7C6FD0420ADF818000320CA
:104B40008DF81A0018208DF81B0006A98148FCF783
:104B5000DDFA0820ADF8180004208DF81B0006A926
:104B60007C48FCF7D3FA26208DF8040002208DF84B
:104B7000050003208DF8060001208DF8070001A82C
:104B8000FBF703FD0020ADF80C00ADF80E00ADF80A
:104B900010000C20ADF812000020ADF81400012127
:104BA0006D48FDF7D0FD01214804FCF798FD4FF456
:104BB0001650029002A96848FDF739FD012240F223
:104BC00025516548FDF7CBFD01216348FDF7BBFD8D
:104BD00000BF6148008800F080000028F9D00D2057
:104BE0005D49091D088000BF5B48008800F0800017
:104BF0000028F9D00A205849091D088007B000BDD7
:104C000070B503460C4603B10CB9002070BD012AF3
:104C100050D100214BE0585C632810D900BF4E48AA
:104C2000008800F080000028F9D0585C6425B0FBB3
:104C3000F5F03030C0F30800474D2D1D2880585C3A
:104C4000092815D900BF4448008800F080000028DA
:104C5000F9D0585C6425B0FBF5F605FB16000A2573
:104C6000B0FBF5F03030C0F308003B4D2D1D28801F
:104C700000BF3948008800F080000028F9D0585C57
:104C80000A25B0FBF5F605FB16003030C0F308002E
:104C9000314D2D1D288000BF2F48008800F0800076
:104CA0000028F9D020202C4D2D1D2880491CA14220
:104CB000B1D368E0022A56D1002151E000BF264856
:104CC000008800F080000028F9D0585C0925B5EB79
:104CD000201F0AD2585C0A25C5EB20104130C0F3D2
:104CE00008001D4D2D1D288006E0585C302505EB81
:104CF0002010194D2D1D288000BF1748008800F096
:104D000080000028F9D0585C00F00F00092809D96C
:104D1000585C00F00F003730C0F308000E4D2D1D19
:104D2000288006E0585C00F00F0030300A4D2D1D41
:104D3000288000BF0848008800F080000028F9D0D3
:104D40002020054D2D1D09E000380140880300207A
:104D50000500020000080140004400402880491C72
:104D6000A142ABD30FE000210BE000BF87480088D1
:104D700000F080000028F9D0585C844D2D1D28805B
:104D8000491CA142F1D3012040E7814908707047D6
:104D90007F48007870471FB501218804FCF79FFC0D
:104DA0000020ADF80400ADF80600ADF808000C20B6
:104DB000ADF80A000020ADF80C004FF4165000903A
:104DC00069467448FDF733FC012240F225517148D1
:104DD000FDF7C5FC01216F48FDF7B5FC00BF6D482C
:104DE000008800F080000028F9D00D206949091DD5
:104DF000088000BF6748008800F080000028F9D0D4
:104E00000A206449091D08801FBD70B503460C4681
:104E100003B10CB9002070BD012A50D100214BE034
:104E2000585C632810D900BF5A48008800F0800001
:104E30000028F9D0585C6425B0FBF5F03030C0F3A1
:104E40000800544D2D1D2880585C092815D900BF35
:104E50005048008800F080000028F9D0585C642594
:104E6000B0FBF5F605FB16000A25B0FBF5F0303077
:104E7000C0F30800474D2D1D288000BF454800881D
:104E800000F080000028F9D0585C0A25B0FBF5F648
:104E900005FB16003030C0F308003E4D2D1D288064
:104EA00000BF3C48008800F080000028F9D0202096
:104EB000384D2D1D2880491CA142B1D35DE0022A46
:104EC0004BD1002146E000BF3248008800F080004E
:104ED0000028F9D0585C0925B5EB201F0AD2585C90
:104EE0000A25C5EB20104130C0F30800294D2D1DC7
:104EF000288006E0585C302505EB2010254D2D1D3F
:104F0000288000BF2348008800F080000028F9D0E6
:104F1000585C00F00F00092809D9585C00F00F0018
:104F20003730C0F308001B4D2D1D288006E0585C6B
:104F300000F00F003030174D2D1D288000BF1548A0
:104F4000008800F080000028F9D02020114D2D1D90
:104F50002880491CA142B6D30FE000210BE000BF1E
:104F60000C48008800F080000028F9D0585C094DFA
:104F70002D1D2880491CA142F1D301204BE7064991
:104F800008707047044800787047000000440040F3
:104F900089030020004800408A0300202DE9F041E9
:104FA00088B004460D4616461F46DDF838800121BC
:104FB0000420FCF787FB01214806FCF790FB4FF427
:104FC0008050ADF81C0003208DF81E0018208DF8CD
:104FD0001F0007A94D48FCF799F84FF40060ADF8A1
:104FE0001C0048208DF81F0007A94848FCF78EF8E0
:104FF00000208DF816008DF817008DF8180001209C
:105000008DF8190000208DF81A008DF81B008DF81E
:1050100012808DF813408DF814608DF81550ADF89E
:10502000107004A93A48FBF732FB00208DF80A0003
:105030008DF80B0001208DF80C000020ADF8000069
:10504000ADF80200ADF80400ADF80600ADF80800B8
:1050500001208DF80D006846FBF7A3FB002008B087
:10506000BDE8F0812DE9F04186B007460D46904637
:105070000024CDF8088004208DF80C0000208DF865
:105080000D008DF80E5000BF05E0395D0DF10F00E9
:105090000155601C84B2AC42F7DB01A91C48FBF748
:1050A0006FFC0646002401E0601C84B231461848BB
:1050B000FBF7FEFC18B940F6FF708442F4DB40F6C3
:1050C000FF70844203DB012006B0BDE8F0810020C0
:1050D000FAE730B585B0054600210D48FBF7C8FD5D
:1050E00010B9002005B030BD6A4600210848FBF722
:1050F0003CFD002404E00DF10B00005D2855641C0C
:10510000082CF8D39DF80A00ECE7000000080140E5
:1051100000640040D2B201E000F8012B491EFBD22E
:1051200070470022F6E710B513460A4604461946B2
:10513000FFF7F0FF204610BDF0B480EA0102D40F63
:105140004200B2EB410F02D20246084611464A0025
:1051500042D0C30DDDB2C1F3C752AD1A202D35DAEE
:10516000C1F3160141F4000204B15242C5F1200618
:1051700002FA06F12A411044B3EBD05F23D0C4B148
:10518000012DA0EBC35009DCF0BC4FF0004202EA55
:10519000C352DBB200F5000000F016BB400000F186
:1051A000807000EBC350A0F1807040EAD1704900DC
:1051B00009E0490841EAC071A0EBC35000F50000C6
:1051C000400800EBC350F0BC00F0F5BA6142012288
:1051D00002EB4101001BF6E7F0BC704781F0004193
:1051E000AAE780F00040A7E780EA010210B502F0CC
:1051F0000043400022D04A001FD0010E01EB126193
:10520000C0F35600C2F3560240F4000042F400021C
:10521000A0FB022000047F39140400D0401C50EA97
:10522000124001D44000491EC2B20C0604EBD0105B
:10523000401C4008802A02D003E0002010BD20F06E
:105240000100002900DA0020184310BD30B480EAC4
:10525000010202F0004530F0004221F0004013D07E
:1052600090B1C30DD40DC2F31601C0F31600E41AB9
:1052700041F4000140F400027D34914201D3641CEA
:1052800000E04900002C02DA30BC002070474FF4E7
:1052900000000023914201D3891A034340084FEADA
:1052A0004101F7D151B1914202D14FF0004105E0E7
:1052B00002D24FF0010101E06FF0010103EBC45095
:1052C000284430BC00F077BA2DE9FE4F804681EAD1
:1052D0000300C00F0C46009021F0004123F0004570
:1052E000B8EB0200A94105D24046214690461C4633
:1052F0000B46024623F00040104347D0270DC7F36A
:105300000A00C3F30A510290401A019040286BDA58
:10531000C3F3130040F4801B0098924620B1002391
:10532000D2EB030A63EB0B0B01985946C0F1400224
:10533000504600F00FFA06460D4650465946019A6F
:1053400000F027FA10EB08006141002487EA1152AF
:1053500084EAE7731A4340D0009A62B3019A012AA3
:105360004FEA075215DC001B61EB02014FF00042CF
:1053700002EA0752CDE90042001C41F58011324695
:105380002B4600F05EFA03B0BDE8F08F40462146A0
:10539000F9E7001B61EB0201001C41F580130018C6
:1053A0005B412018A2F5001747EB030140EAD570D6
:1053B000B6196D4111E06D084FEA360645EAC07531
:1053C0004FEA0752001B61EB0201001C41F58011FE
:1053D00049084FEA30000019514132462B4603B0CC
:1053E000BDE8F04F00F01EBA0098012240000023F3
:1053F000D0EB020263EBE073009821464FEAE074C1
:10540000B8EB000061EB0401E9E783F000435BE7E0
:1054100081F0004158E72DE9FE4F81EA030404F0D2
:10542000004421F0004100944FF0000B23F00043B2
:1054300050EA01045ED052EA03045BD0C3F30A547D
:10544000C1F30A552C44A4F2F3340194A0FB025496
:10545000C1F3130141F48011C3F3130343F4801328
:1054600001FB024400FB034E840A970A44EA81547C
:1054700047EA8357A4FB076802958D0A05FB078559
:105480004FEA932C04FB0C542705029D4FEA065863
:1054900047EA1637B5EB08056EEB070C870E920E40
:1054A00047EA811742EA8312A7FB0201B6EB0B0120
:1054B00064EB00042B0D43EA0C335E1844EB1C50E4
:1054C000DA465146E7FB0201C5F313044FEA0B33FA
:1054D00043EA14534FEA0432019C43EA0603A4F161
:1054E0000C040294009CCDE900B400F0AAF903B0CA
:1054F000BDE8F08F00200146F9E72DE9F04D81EA83
:10550000030404F0004B21F0004514464FF0000A5C
:1055100023F0004150EA050220D054EA01021DD0D8
:10552000C5F30A570246C5F31303C1F31300C1F3D1
:105530000A5640F4801543F48013A7EB0608101BAD
:10554000D64608F2FD3873EB050002D308F10108D6
:1055500001E092185B41B8F1000F03DA0020014628
:10556000BDE8F08D00204FF48011064684460EE021
:10557000171B73EB050705D3121B63EB05030643EB
:105580004CEA010C49084FEA300092185B4150EA9E
:105590000107EDD152EA030012D082EA040083EA47
:1055A0000501084305D0101BAB4106D201220023A0
:1055B00006E000224FF0004302E06FF001025310BA
:1055C0001AEB06004CEB085110EB0A0041EB0B0103
:1055D000BDE8F04D00F026B9C10F80EAE070084444
:1055E000CA079623002100F0EFB80EB540F2334110
:1055F00002910021CDE900110A460B4600F021F985
:1056000003B000BD00F0004220F00040C10DC0F327
:10561000160040F400007F2901DA00207047962927
:1056200003DCC1F19601C84001E096398840002AA8
:10563000F4D040427047C1F30A5210B5C1F31301D0
:1056400040F2FF3341F480119A4201DA002010BD8C
:1056500040F233439A42A2F2334203DC524200F05A
:1056600088F810BD904010BD00F0004230F00040BE
:105670000AD0C10D01F56071C0F3160042EA015174
:10568000C20840071143704700200146704701F0EF
:10569000004330B421F0004150EA010206D00A0D67
:1056A000A2F56072C1F31301002A02DC30BC0020B5
:1056B0007047440F44EAC104C100E01830BC00EB5D
:1056C000C25000F078B830B50B46014600202022C9
:1056D000012409E021FA02F59D4205D303FA02F5FF
:1056E000491B04FA02F52844151EA2F10102F1DC5F
:1056F00030BD2DE9F05F0546002092469B46884666
:105700000646814640241BE028464146474622463D
:1057100000F02FF853465A46C01A914110D3114653
:105720001846224600F016F82D1A67EB01084F467E
:1057300022460120002100F00DF817EB00094E4130
:10574000201EA4F10104DFDC484631462A464346C8
:10575000BDE8F09F202A04DB203A00FA02F1002085
:1057600070479140C2F1200320FA03F3194390409F
:105770007047202A04DB203A21FA02F0002170470A
:1057800021FA02F3D040C2F12002914008431946A9
:105790007047202A06DBCB17203A41FA02F043EA91
:1057A000E07306E041FA02F3D040C2F120029140DA
:1057B0000843194670470029A8BF7047401C49009C
:1057C00008BF20F00100704710B4B0FA80FC00FA66
:1057D0000CF050EA010404BF10BC704749B1CCF191
:1057E000200421FA04F411FA0CF118BF012121431D
:1057F0000843A3EB0C01CB1D4FEA00614FEA1020D8
:1058000042BF002010BC704700EBC3501044002979
:10581000A4BF10BC7047401C490008BF20F0010025
:1058200010BC704710B5141E73F1000408DA401C58
:1058300041F1000192185B411A4301D120F00100AF
:1058400010BD2DE9F04D92469B4611B1B1FA81F29F
:1058500002E0B0FA80F220329046FFF77BFF044668
:105860000F4640EA0A0041EA0B0153465A460843F4
:1058700013D0114653EA010019D0C8F14002504636
:10588000FFF777FF05460E46504659464246FFF75A
:1058900061FF084305D0012004E020463946BDE8F9
:1058A000F08D0020054346EAE0762C4337430A9802
:1058B0006305E40AA0EB08000022FD0A44EA47540D
:1058C0000A3002D500200146E9E7010510196941B7
:1058D000DDE9084500196941BDE8F04DA2E770B562
:1058E00021F0004303430CD0C1F30A550024D5EB4B
:1058F000040564EB0403D617AD1AB34102DB0020A4
:10590000014670BD201841EB025170BD0EB5C10FAC
:1059100080EAE0700844CA07002140F233438DE872
:105920000E000A460B46FFF78CFF03B000BDC1F323
:105930000A52C1F3130140F2FF3341F480119A423D
:1059400002DA00200146704740F233439A42A2F245
:10595000334202DC5242FFF70CBFFFF7FBBE0000F0
:1059600030B5041E71F1000404DB4FF000444042E6
:1059700064EB0101141E73F1000405DB1C464FF0BB
:105980000043524263EB04038B4208BF824230BDA6
:1059900030B5041E71F1000404DB4FF000444042B6
:1059A00064EB0101141E73F1000405DB1C464FF08B
:1059B0000043524263EB0403994208BF904230BD5A
:1059C000064C074D06E0E06840F0010394E807004C
:1059D00098471034AC42F6D3FAF78CFBD86700082E
:1059E000F867000870B58C1810F8015B15F0070314
:1059F00001D110F8013B2A1106D110F8012B03E068
:105A000010F8016B01F8016B5B1EF9D12B0705D46F
:105A10000023521E0DD401F8013BFAE710F8013BB8
:105A2000CB1A921C03E013F8015B01F8015B521ED4
:105A3000F9D5A142D8D3002070BD00000FB4054BAA
:105A400010B503A9044A029800F05AF910BC5DF899
:105A500014FB0000732C0008540000200FB4084B06
:105A600010B504A902AA039800F04AF9044602A955
:105A7000002000F0DCFC204610BC5DF814FB0000A8
:105A80002F6400082DE9F0414F1E00EBC7010446CA
:105A9000D1E9000115461E4637F006020DD02A4610
:105AA0003346FFF7B8FC7F1E04EBC703D3E900239E
:105AB000FFF70AFC37F00602F1D1022F25D0042FA0
:105AC00013D0062F18BFBDE8F0812A463346FFF7F2
:105AD000A2FCD4E90A23FFF7F7FB2A463346FFF777
